{"abi":[{"type":"constructor","inputs":[{"name":"_product_id","type":"string","internalType":"string"},{"name":"_product_name","type":"string","internalType":"string"},{"name":"_price","type":"int256","internalType":"int256"},{"name":"_is_available","type":"bool","internalType":"bool"}],"stateMutability":"nonpayable"},{"type":"function","name":"is_available","inputs":[],"outputs":[{"name":"","type":"bool","internalType":"bool"}],"stateMutability":"view"},{"type":"function","name":"price","inputs":[],"outputs":[{"name":"","type":"int256","internalType":"int256"}],"stateMutability":"view"},{"type":"function","name":"product_id","inputs":[],"outputs":[{"name":"","type":"string","internalType":"string"}],"stateMutability":"view"},{"type":"function","name":"product_name","inputs":[],"outputs":[{"name":"","type":"string","internalType":"string"}],"stateMutability":"view"}],"bytecode":{"object":"0x608060405234801561000f575f5ffd5b506040516109323803806109328339818101604052810190610031919061022e565b835f908161003f91906104da565b50826001908161004f91906104da565b50816002819055508060035f6101000a81548160ff021916908315150217905550505050506105a9565b5f604051905090565b5f5ffd5b5f5ffd5b5f5ffd5b5f5ffd5b5f601f19601f8301169050919050565b7f4e487b71000000000000000000000000000000000000000000000000000000005f52604160045260245ffd5b6100d882610092565b810181811067ffffffffffffffff821117156100f7576100f66100a2565b5b80604052505050565b5f610109610079565b905061011582826100cf565b919050565b5f67ffffffffffffffff821115610134576101336100a2565b5b61013d82610092565b9050602081019050919050565b8281835e5f83830152505050565b5f61016a6101658461011a565b610100565b9050828152602081018484840111156101865761018561008e565b5b61019184828561014a565b509392505050565b5f82601f8301126101ad576101ac61008a565b5b81516101bd848260208601610158565b91505092915050565b5f819050919050565b6101d8816101c6565b81146101e2575f5ffd5b50565b5f815190506101f3816101cf565b92915050565b5f8115159050919050565b61020d816101f9565b8114610217575f5ffd5b50565b5f8151905061022881610204565b92915050565b5f5f5f5f6080858703121561024657610245610082565b5b5f85015167ffffffffffffffff81111561026357610262610086565b5b61026f87828801610199565b945050602085015167ffffffffffffffff8111156102905761028f610086565b5b61029c87828801610199565b93505060406102ad878288016101e5565b92505060606102be8782880161021a565b91505092959194509250565b5f81519050919050565b7f4e487b71000000000000000000000000000000000000000000000000000000005f52602260045260245ffd5b5f600282049050600182168061031857607f821691505b60208210810361032b5761032a6102d4565b5b50919050565b5f819050815f5260205f209050919050565b5f6020601f8301049050919050565b5f82821b905092915050565b5f6008830261038d7fffffffffffffffffffffffffffffffffffffffffffffffffffffffffffffffff82610352565b6103978683610352565b95508019841693508086168417925050509392505050565b5f819050919050565b5f819050919050565b5f6103db6103d66103d1846103af565b6103b8565b6103af565b9050919050565b5f819050919050565b6103f4836103c1565b610408610400826103e2565b84845461035e565b825550505050565b5f5f905090565b61041f610410565b61042a8184846103eb565b505050565b5b8181101561044d576104425f82610417565b600181019050610430565b5050565b601f8211156104925761046381610331565b61046c84610343565b8101602085101561047b578190505b61048f61048785610343565b83018261042f565b50505b505050565b5f82821c905092915050565b5f6104b25f1984600802610497565b1980831691505092915050565b5f6104ca83836104a3565b9150826002028217905092915050565b6104e3826102ca565b67ffffffffffffffff8111156104fc576104fb6100a2565b5b6105068254610301565b610511828285610451565b5f60209050601f831160018114610542575f8415610530578287015190505b61053a85826104bf565b8655506105a1565b601f19841661055086610331565b5f5b8281101561057757848901518255600182019150602085019450602081019050610552565b868310156105945784890151610590601f8916826104a3565b8355505b6001600288020188555050505b505050505050565b61037c806105b65f395ff3fe608060405234801561000f575f5ffd5b506004361061004a575f3560e01c80634671d1d61461004e57806389c948ec1461006c578063a035b1fe1461008a578063eab0a479146100a8575b5f5ffd5b6100566100c6565b6040516100639190610265565b60405180910390f35b610074610152565b604051610081919061029f565b60405180910390f35b610092610164565b60405161009f91906102d0565b60405180910390f35b6100b061016a565b6040516100bd9190610265565b60405180910390f35b600180546100d390610316565b80601f01602080910402602001604051908101604052809291908181526020018280546100ff90610316565b801561014a5780601f106101215761010080835404028352916020019161014a565b820191905f5260205f20905b81548152906001019060200180831161012d57829003601f168201915b505050505081565b60035f9054906101000a900460ff1681565b60025481565b5f805461017690610316565b80601f01602080910402602001604051908101604052809291908181526020018280546101a290610316565b80156101ed5780601f106101c4576101008083540402835291602001916101ed565b820191905f5260205f20905b8154815290600101906020018083116101d057829003601f168201915b505050505081565b5f81519050919050565b5f82825260208201905092915050565b8281835e5f83830152505050565b5f601f19601f8301169050919050565b5f610237826101f5565b61024181856101ff565b935061025181856020860161020f565b61025a8161021d565b840191505092915050565b5f6020820190508181035f83015261027d818461022d565b905092915050565b5f8115159050919050565b61029981610285565b82525050565b5f6020820190506102b25f830184610290565b92915050565b5f819050919050565b6102ca816102b8565b82525050565b5f6020820190506102e35f8301846102c1565b92915050565b7f4e487b71000000000000000000000000000000000000000000000000000000005f52602260045260245ffd5b5f600282049050600182168061032d57607f821691505b6020821081036103405761033f6102e9565b5b5091905056fea26469706673582212206e7e3aae82d896e22774f9ca70f60c66bd61c7ae95853b32715449e96b50800164736f6c634300081e0033","linkReferences":{}},"methodIdentifiers":{"is_available()":"89c948ec","price()":"a035b1fe","product_id()":"eab0a479","product_name()":"4671d1d6"},"id":0}